:100000000C9467000C948F000C948F000C948F005C
:100010000C948F000C948F000C948F000C948F0024
:100020000C948F000C948F000C948F000C948F0014
:100030000C948F000C948F000C948F000C948F0004
:100040000C94D7070C948F000C9447080C9421084B
:100050000C948F000C948F000C948F000C948F00E4
:100060000C94AC060C948F000000000025002800C2
:100070002B000000000023002600290000000009DA
:10008000000302000004050800000000000000005A
:1000900000000000000000240027002A00010204E4
:1000A00008102040800102040810200102040810FA
:1000B00020408040040404040404040402020202F8
:1000C000020203030303030302020300AF08112427
:1000D0001FBECFEFD8E0DEBFCDBF11E0A0E0B1E0A2
:1000E000ECE1F8E102C005900D92AC3BB107D9F705
:1000F00023E0ACEBB1E001C01D92A834B207E1F7F8
:1001000010E0C7E6D0E004C02197FE010E94060C73
:10011000C636D107C9F70E9437090C940C0C0C9411
:10012000000085ED8093BC008091BC0084FDFCCF75
:1001300010925A02089520913402260F3327331F5C
:1001400021323105ECF420915A02FC0190E080E06C
:10015000243069F082E00895A09134022191AC012D
:100160004E5E5D4FA40FB52FB11D2C9301968617DF
:1001700098F380913402680F6093340280E0089510
:1001800081E00895089508950895E0910F02809107
:100190000E02E81730F4F0E0E251FE4F808190E06B
:1001A00008958FEF9FEF089590910F0280910E02B6
:1001B0002FEF3FEF981748F4E92FF0E0E251FE4FA0
:1001C000208130E09F5F90930F02C90108958091D4
:1001D0000E0290910F02891B990B0895CF92DF9226
:1001E000EF92FF920F931F93CF93DF937C01CB018C
:1001F0008A012091ED01222389F0EB016B01C40EED
:10020000D51ECC15DD0569F06991D701ED91FC9102
:100210000190F081E02DC7010995F3CF642F0E9472
:100220009B00C801DF91CF911F910F91FF90EF903C
:10023000DF90CF900895CF93DF931F92CDB7DEB7B5
:1002400069832091ED012223F9F0209110022032E0
:1002500058F021E030E0FC013383228390E080E01D
:100260000F90DF91CF91089580911102E82FF0E077
:10027000E353FE4F998190838F5F809311028093A7
:10028000100281E090E0ECCF61E0CE0101960E9487
:100290009B00F7CF843081F028F48230E9F083307E
:1002A000F9F00895883071F0893091F08530B9F413
:1002B000809180008F7D03C0809180008F77809334
:1002C000800008958091B0008F778093B0000895EA
:1002D0008091B0008F7DF9CF84B58F7784BD08956C
:1002E00084B58F7DFBCFCF93DF93282F30E0F901CA
:1002F000E458FF4F8491F901E356FF4FD491F9017F
:10030000EC54FF4FC491CC23A1F081110E944A010B
:10031000EC2FF0E0EE0FFF1FEE58FF4FA591B491C8
:10032000EC91ED2381E090E009F480E0DF91CF9142
:10033000089580E090E0FACF1F93CF93DF93282FAA
:1003400030E0F901E458FF4F8491F901E356FF4F83
:10035000D491F901EC54FF4FC491CC23A9F0162F8E
:1003600081110E944A01EC2FF0E0EE0FFF1FE859C7
:10037000FF4FA591B4918FB7F894EC91111108C07B
:10038000D095DE23DC938FBFDF91CF911F9108952D
:10039000DE2BF8CF61E080913A030C949C01CF935F
:1003A000DF9390E0FC01E356FF4F24918C549F4F64
:1003B000FC0184918823D1F090E0880F991FFC0103
:1003C000ED56FF4FA591B491FC01E859FF4FC5913F
:1003D000D491623071F49FB7F8943C91822F80954C
:1003E00083238C93E8812E2B28839FBFDF91CF91AD
:1003F00008958FB7F894EC912E2B2C938FBFF6CFE6
:100400008130910539F0880F991F880F991F059742
:100410000197F1F708953FB7F8948091C801909142
:10042000C901A091CA01B091CB0126B5A89B05C016
:100430002F3F19F00196A11DB11D3FBFBA2FA92F63
:10044000982F8827BC01CD01620F711D811D911D60
:1004500042E0660F771F881F991F4A95D1F70895CC
:100460008F929F92AF92BF92CF92DF92EF92FF92C4
:100470004B015C010E940B026B017C010E940B028C
:100480006C197D098E099F09683E734081059105AD
:10049000A8F321E0821A9108A108B10888EEC80EDD
:1004A00083E0D81EE11CF11C81149104A104B10465
:1004B00029F7FF90EF90DF90CF90BF90AF909F9083
:1004C0008F900895AF92BF92CF92DF92EF92FF92FA
:1004D0000F931F93CF93DF936C017B018B01040F6C
:1004E000151FEB015E01AE18BF08C017D10759F008
:1004F0006991D601ED91FC910190F081E02DC6014A
:100500000995892B79F7C501DF91CF911F910F9143
:10051000FF90EF90DF90CF90BF90AF900895FC01D7
:10052000538D448D252F30E0842F90E0821B930B58
:10053000541710F0CF96089501970895FC01918DFE
:10054000828D981761F0A28DAE0FBF2FB11D5D9601
:100550008C91928D9F5F9F73928F90E008958FEFA3
:100560009FEF0895FC01918D828D981731F0828D57
:10057000E80FF11D858D90E008958FEF9FEF0895AE
:10058000FC01918D228D892F90E0805C9F4F821B12
:1005900091098F739927089588E892E00E94C0021C
:1005A00021E0892B09F420E0822F089580E090E07B
:1005B000892B29F00E94CC0281110C94000008952F
:1005C000FC01A48DA80FB92FB11DA35ABF4F2C91C8
:1005D000848D90E001968F739927848FA689B789BF
:1005E0002C93A089B1898C91837080648C93938DB6
:1005F000848D981306C00288F389E02D80818F7D59
:1006000080830895EF92FF920F931F93CF93DF9310
:10061000EC0181E0888F9B8D8C8D98131AC0E8893E
:10062000F989808185FF15C09FB7F894EE89FF890D
:100630006083E889F98980818370806480839FBFAB
:1006400081E090E0DF91CF911F910F91FF90EF90AB
:100650000895F62E0B8D10E00F5F1F4F0F731127BB
:10066000E02E8C8D8E110CC00FB607FCFACFE889F6
:10067000F989808185FFF5CFCE010E94E002F1CF9C
:10068000EB8DEC0FFD2FF11DE35AFF4FF0829FB76A
:10069000F8940B8FEA89FB8980818062CFCFCF935A
:1006A000DF93EC01888D8823B9F0AA89BB89E8899A
:1006B000F9898C9185FD03C0808186FD0DC00FB640
:1006C00007FCF7CF8C9185FFF2CF808185FFEDCFBE
:1006D000CE010E94E002E9CFDF91CF910895CF9340
:1006E000FC01C48121E02093ED01C093C60110926A
:1006F0001102109210028485682B8CE792E00E9410
:100700001B01809110028132F0F590915A029111F3
:10071000FCCF92E090935A0291E090935C029FEF9D
:10072000909359022DEC31E030935E0220935D02EC
:100730001092600280935F021092610280916102C8
:10074000CC0FC82BC093610280915B02813019F5F8
:1007500010925B02809161028093BB008091BC008B
:1007600083FDF8CF85EC8093BC0080915A028230E3
:10077000E1F3809159028F3F31F08091590280322C
:1007800011F08091590210921102109210021092F1
:10079000ED01CF91089585EEE6CF0F931F93CF9390
:1007A0008C01C62F0E946F036C2F6460C8010E94E9
:1007B0006F0381E090E00E9400026C2F6B7FC80104
:1007C0000E946F0382E390E0CF911F910F910C94F0
:1007D00000020F931F93CF93DF938C01D62FC42F6A
:1007E000607F642B0E94CD0380E1D89FB00111246B
:1007F0006C2BC801DF91CF911F910F910C94CD0309
:10080000CF93DF93CDB7DEB728970FB6F894DEBF4E
:100810000FBECDBF98E0E8E0F1E0DE011196019057
:100820000D929A95E1F790912E03961710F46FEFC1
:10083000690F262F30E0220F331F41E050E04C0FAC
:100840005D1F240F351FF9016081680F606840E06B
:1008500086E293E028960FB6F894DEBF0FBECDBFB8
:10086000DF91CF910C94E90340E061E086E293E0F0
:100870000E94E90380ED97E00E94000280912F031F
:10088000882321F060E080E00C9400040895823019
:1008900028F090912B03986090932B0380932E0364
:1008A00062E370E080E090E00E94300260913203E9
:1008B00086E293E00E946F0368EE73E080E090E0D0
:1008C0000E94300260E386E293E00E94CD0384E957
:1008D00091E10E94000260E386E293E00E94CD0372
:1008E00084E991E10E94000260E386E293E00E94C5
:1008F000CD0386E990E00E94000260E286E293E088
:100900000E94CD0360912B03606240E086E293E099
:100910000E94E90384E080932C0340E06CE086E2CF
:1009200093E00E94E9030E94340482E080932D0347
:1009300040E066E086E293E00E94E90340E062E086
:1009400086E293E00E94E90380ED97E00C940002B8
:1009500041E00E94E90381E090E00895089590E06D
:1009600080E008958EBD00000DB407FEFDCF8EB56A
:1009700008950F931F9300913B0310913C03209126
:100980003D0330913E0340E052E16AE770E080E0D1
:10099000041715072607370740F47695679557958E
:1009A00047958F5F8630A1F787E0982F906A9695DC
:1009B000809581709CBD8DBD60E080913A031F9150
:1009C0000F910C949C011F93CF93DF93182FD62F78
:1009D000C42F0E94B90485E00E94B204812F0E94B6
:1009E000B2048D2F0E94B2048C2F0E94B204DF91BA
:1009F000CF911F910C94CA01CF92DF92EF92FF9298
:100A0000CF93DF93D82F482F68EE8FE00E94E30446
:100A10008FB7F894C0907802D0907902E0907A0273
:100A2000F0907B028FBF8AE0C80ED11CE11CF11C44
:100A30002FB7F8948091780290917902A0917A0270
:100A4000B0917B022FBF8C159D05AE05BF05E0F46C
:100A50000E94B90483E00E94B2048EE00E94B204B6
:100A600080E00E94B204C82F0E94CA01C07EDC133D
:100A7000DFCF81E091E0892790E0DF91CF91FF9077
:100A8000EF90DF90CF90089580E0F4CFCF93DF9385
:100A9000D82FC62F0E94B90482E00E94B2048D2F85
:100AA0000E94B2048C2F0E94B204DF91CF910C946B
:100AB000CA01EF92FF920F931F93CF93DF93C82F3A
:100AC000162FE72E042F0E94B90482E00E94B20480
:100AD0008C2F0E94B204F12EC12FDE2D89910E942D
:100AE000B2048C2F8F198017C8F3DF91CF911F911B
:100AF0000F91FF90EF900C94CA01FF920F931F93F8
:100B0000CF93DF93C82FF62E172F042F0E94B9041E
:100B100083E00E94B2048C2F0E94B204CF2DD12F0B
:100B20000C0F1D2F111DC017D10729F080E00E9466
:100B3000B2048993F8CFDF91CF911F910F91FF906D
:100B40000C94CA01AF92BF92CF92DF92EF92FF92C4
:100B50000F931F93CF93DF9300D000D01F92CDB798
:100B6000DEB78C01000F111F000F111FF801E45EAA
:100B7000FE4F45E0BE016F5F7F4F81810E947D0582
:100B80008A81C98098E0C99E60011124282F30E035
:100B900055E0359527955A95E1F7C20ED31E0D2CD9
:100BA000000CEE08FF0883FF20C092E0CC0CDD1C97
:100BB000EE1CFF1C9A95D1F78370C80ED11CE11C66
:100BC000F11CFE2CED2CDC2CCC248B81C80ED11C0E
:100BD000E11CF11CFE2CED2CDC2CCC248C81C80EED
:100BE000D11CE11CF11C6894F7F88D818F70B82E30
:100BF000E8E081E090E0EB1588F1F801E45EFE4F5B
:100C0000A0800E94B90483E00E94B2048A2D0E9451
:100C1000B20480E00E94B204A82E0E94CA01A3FE82
:100C200002C06894F6F8C0926802D0926902E0921D
:100C30006A02F0926B02B0926C02045E1E4F4B2D62
:100C400060E772E0F80182810E947D0540E0F801D2
:100C500063818CE20E94E30490E080E00F900F90AB
:100C60000F900F900F90DF91CF911F910F91FF90F8
:100C7000EF90DF90CF90BF90AF900895FB0101906F
:100C80000020E9F73197AF01461B570BDC01ED91CE
:100C9000FC910280F381E02D0994CF93DF93BC0196
:100CA00088E892E00E943E06EC0164E571E088E885
:100CB00092E00E943E068C0F9D1FDF91CF91089518
:100CC0008F929F92AF92BF92EF92FF920F931F93DA
:100CD000CF93DF93CDB7DEB7A1970FB6F894DEBF01
:100CE0000FBECDBF7C01FA01CB0119A2223008F45E
:100CF0002AE08E010F5D1F4F822E912CB12CA12C6A
:100D0000BF01A50194010E94E40BF901CA016A30F8
:100D10000CF5605DD8016E938D01232B242B252BC0
:100D200079F790E080E0109721F0BD01C7010E94A3
:100D30003E06A1960FB6F894DEBF0FBECDBFDF9181
:100D4000CF911F910F91FF90EF90BF90AF909F9028
:100D50008F900895695CDECF1F920F920FB60F92AD
:100D600011242F933F934F935F936F937F938F93B0
:100D70009F93AF93BF93EF93FF938091B900887FC8
:100D8000803609F44AC0F0F5883209F4A7C018F596
:100D9000803109F49BC0B8F4882309F405C1883078
:100DA00009F494C0FF91EF91BF91AF919F918F9102
:100DB0007F916F915F914F913F912F910F900FBE57
:100DC0000F901F901895883109F488C0803251F730
:100DD0008093590214C0803409F4A5C040F48033D4
:100DE000B9F38833F9F68093590285ECBCC080359D
:100DF00009F489C0883509F49EC0883499F60E94A8
:100E00009100D0CF883909F494C038F5883729F09B
:100E100050F4883611F0803729F683E080935A0227
:100E20001092580257C0883809F483C0803919F0ED
:100E3000803809F0B7CF80915802803208F079C02D
:100E4000E091580281E08E0F809358028091BB00A0
:100E5000F0E0E85CFD4F80833DC0803B39F0E0F47A
:100E6000803A09F485C0883A09F09CCF84E08093E9
:100E70005A021092350210923402E0913202F0913F
:100E8000330209958091340281110FC081E0809373
:100E900034021092120209C0803C09F4A6CF883CAB
:100EA00009F4A3CF883B09F07DCFE091350281E0C2
:100EB0008E0F80933502F0E0EE5EFD4F80818093CF
:100EC000BB00909135028091340231C08091610263
:100ED0008093BB0085EC8093BC0064CF909160024E
:100EE00080915F029817B8F580915D0290915E0243
:100EF000E091600221E02E0F20936002E80FF92FAD
:100F0000F11D8081E5CF20915D0230915E02E0917C
:100F1000600281E08E0F809360028091BB00E20F3F
:100F2000F32FF11D80839091600280915F029817EA
:100F300088F285E8D0CF20915D0230915E02E09189
:100F4000600281E08E0F809360028091BB00E20F0F
:100F5000F32FF11D808380915C02811150CF81E0DD
:100F600080935B0284EA8093BC0010925A021ACFED
:100F700085EC8093BC0010925A0280915802803216
:100F800030F4E0915802F0E0E85CFD4F108260918F
:100F9000580270E0E0913602F091370288E392E067
:100FA000099510925802FECE1092590228CF1F9236
:100FB0000F920FB60F9211242F933F938F939F930D
:100FC000AF93BF938091780290917902A0917A02B9
:100FD000B0917B023091C70123E0230F2D3768F1D8
:100FE00026E8230F0296A11DB11D2093C70180930F
:100FF000780290937902A0937A02B0937B02809159
:10100000C8019091C901A091CA01B091CB0101968C
:10101000A11DB11D8093C8019093C901A093CA017D
:10102000B093CB01BF91AF919F918F913F912F9141
:101030000F900FBE0F901F9018950196A11DB11D26
:10104000D4CF1F920F920FB60F9211242F933F937C
:101050004F935F936F937F938F939F93AF93BF93C0
:10106000EF93FF9388E892E00E94E002FF91EF91F6
:10107000BF91AF919F918F917F916F915F914F91B0
:101080003F912F910F900FBE0F901F9018951F92B8
:101090000F920FB60F9211242F938F939F93EF937C
:1010A000FF93E0919802F09199028081E0919E0275
:1010B000F0919F0282FD1BC090818091A1028F5F01
:1010C0008F732091A202821741F0E091A102F0E01B
:1010D000E857FD4F958F8093A102FF91EF919F916B
:1010E0008F912F910F900FBE0F901F9018958081B8
:1010F000F4CFCF93CFB7F8948091CC01811127C062
:10110000EEEBF0E08491E7EAF0E09491E82FF0E074
:10111000EE0FFF1FED56FF4FA591B491EC91E9231F
:1011200021F461E08AE00E949C0161E08AE00E9473
:10113000CF018CB580618CBD8CB580648CBD61E0C5
:101140008DE00E94CF0161E08BE00E94CF01809191
:10115000CC018F5F8093CC01CFBFCF910895CF9208
:10116000DF92EF92FF920F931F93CF93DF93ECE701
:10117000F2E01382128288EE93E0A0E0B0E0848374
:101180009583A683B78328E231E031832083E8E8A2
:10119000F2E01382128284839583A683B7838AE365
:1011A00091E09183808385EC90E09587848784EC3F
:1011B00090E09787868780EC90E0918B808B81EC24
:1011C00090E0938B828B82EC90E0958B848B86EC05
:1011D00090E0978B868B118E128E138E148ECAE33D
:1011E000D3E005E213E01E830D830E9479088AE0B4
:1011F000888390E8C92E96E9D92E98E9E92EF12C3A
:10120000C982DA82EB82FC8261E00E94CF0161E058
:1012100088810E949C01C3E3D3E01E830D830E945A
:10122000790889E08883C982DA82EB82FC8261E0F6
:101230000E94CF0161E088810E949C01E6E2F3E018
:10124000138212828CE491E091838083118687E27D
:10125000848384E1828784E083871486DF91CF9141
:101260001F910F91FF90EF90DF90CF900895CF9353
:10127000DF93CDB7DEB7A2970FB6F894DEBF0FBEEF
:10128000CDBF789484B5836084BD85B5836085BD0A
:1012900080916E00816080936E0092E09093810057
:1012A00080918100816080938100809180008160C5
:1012B000809380008091B10084608093B100809120
:1012C000B00081608093B00087E880937A0010922C
:1012D000C100E0919802F09199029083E09194020C
:1012E000F09195021082E0919602F09197028FECB6
:1012F00080831092A002E0919C02F0919D0286E012
:101300008083E0919A02F0919B02808188698083BA
:10131000E0919A02F0919B0280818F7D808384E02E
:101320000E9447040E94B90480EC0E94B2040E940B
:10133000CA016AE070E080E090E00E9430028E0115
:101340000F5F1F4F8EE0F80111928A95E9F74EE08A
:10135000B80180E30E9459054EE0B80180E40E9484
:1013600059054EE0B80180E50E94590560E080E62D
:101370000E94460560E080E70E94460563EA8BE232
:101380000E94460544E067E680E60E94E30441E0EF
:1013900067E680E70E94E3048CE0E0E1F1E0DE0133
:1013A0001F9601900D928A95E1F76E01FFE0CF0E36
:1013B000D11CF12CE12C48E0B42EF60101911191E1
:1013C0006F0180E80E94FC04892B71F40230110542
:1013D00009F4C3C108F06EC10115110509F4C3C1B8
:1013E0000130110509F472C180E80E94FC04892BC8
:1013F00061F460E08AE20E9446056AEF89E20E9499
:10140000460567E888E20E94460580E00E94FC04E9
:1014100067E571E088E892E00E943E066FE571E0C2
:1014200086E293E00E943E0668EE73E080E090E082
:101430000E9430020E94340461E088E00E94CF01E3
:1014400060E088E00E949C018FE691E00E944D06DA
:1014500061E088E00E949C0110920F0210920E023F
:10146000109211021092100210925A0281E08093A1
:101470005C0210925B0261E082E10E949C0161E0EB
:1014800083E10E949C018091B9008E7F8093B90016
:101490008091B9008D7F8093B90088E48093B80073
:1014A00085E48093BC0082EC90E0909333028093BB
:1014B000320283EC90E090933702809336021092D0
:1014C0002B03809131030E94470487E791E00E943B
:1014D0004D0664E670E080E090E00E94300288E013
:1014E0008093320360E086E293E00E946F0340E065
:1014F00060E486E293E00E94E90300E011E028E066
:10150000E22E21E0F22EF80161918F0186E293E054
:101510000E94A804E016F106B1F785E891E00E9468
:101520004D0664E670E080E090E00E94300260E0EA
:1015300080E00E94000462E971E086E293E00E948C
:101540003E0664EF71E080E090E00E94300262E0CD
:101550008EE00E94CF0162E08FE00E94CF018EE01A
:101560000E9473018FE00E94730190E0C92E90E009
:10157000D92E63E080E00E9400048FB7F894409178
:1015800078025091790260917A0270917B028FBF4C
:101590002AE086E293E00E94600661E088E00E9413
:1015A000000460E086E293E00E94A8040E94B9046F
:1015B00080EA0E94B20480E00E94B204182F0E94C8
:1015C000CA0190E080E010FD04C011FFD5C081E0A9
:1015D00090E00E94A2058C0168E971E088E892E041
:1015E0000E943E066AE088E892E00E9402038EE0D4
:1015F0000E9473018FE00E947301012B09F0D8C093
:1016000060E080E00E9400046EE971E086E293E011
:101610000E943E0660E083E00E9400044091680260
:101620005091690260916A0270916B0220E186E23A
:1016300093E00E94600661E080E00E9400046CEA92
:1016400071E086E293E00E943E0640916C0250E019
:1016500070E060E02AE086E293E00E94600662E0CB
:1016600080E00E94000480E7E82E82E0F82E10E07F
:1016700080916C02181708F082C0183009F47FC0FE
:101680005701F7018081803130F461EB71E086E22F
:1016900093E00E943E06FFEFEF1AFF0AF50140813A
:1016A00050E070E060E020E186E293E00E94600696
:1016B0001F5FDECF0430110509F453C008F44FC09A
:1016C0000530110509F090CE88E101C084E0F1E019
:1016D000EF16F10409F049C01E8E1D8EBC8E1B8EC4
:1016E00044E0BE01655E7F4F0E9459058FEFE81A06
:1016F000F80A96E0E916F10409F05FCE18A21F8EF1
:1017000081E090E09AA389A38E01015E1F4F6E01D4
:10171000E3E2CE0ED11C38E0B32EF801E190F19057
:101720008F0180E80E94FC04892B09F05DCE1E8E9B
:101730001D8EBC8E1B8EE114F104E1F0EA94EF28BB
:1017400009F052CE84E244E0BE01655E7F4F0E9404
:1017500059050C151D0509F747CE88E0B8CF80E183
:10176000B6CF84E1B4CF80E0B2CF1B8E1C8E1E8E2C
:101770001D8EB6CF80E2E7CF05E010E02DCF63EB02
:1017800071E088E892E00E943E0640916802509124
:10179000690260916A0270916B0220E188E892E030
:1017A0000E94600664E571E088E892E00E943E06CF
:1017B000C114D10409F4DDCE0E94CC02882309F4BF
:1017C000D8CE0E940000D5CEA1E21A2EAA1BBB1BC8
:1017D000FD010DC0AA1FBB1FEE1FFF1FA217B307FD
:1017E000E407F50720F0A21BB30BE40BF50B661F13
:1017F000771F881F991F1A9469F7609570958095D7
:1018000090959B01AC01BD01CF010895EE0FFF1F24
:0C1810000590F491E02D0994F894FFCFAE
:10181C0008140803040404030000400014005400DE
:10182C000000010002000300040005006061660175
:10183C0070717602000000001B01EE00AF04C400C2
:10184C00E700D400C50000000000020362028F0212
:10185C004F03C0029E02B20200000000A804620204
:10186C00AF04AE040D0A00776F726B696E670043AC
:10187C00414E20496E697469616C697A65640041F6
:10188C00542B43303639004C434420696E69742024
:10189C00646F6E65004261636B6C69676874206F7E
:1018AC006E0052656164790074657374320054651E
:1018BC006D703A2020202020202020005350443AE4
:0C18CC0000300043414E5F49443A0000E8
:00000001FF
